:100000000C94B9030C94631D0C943C1D0C94D91CE6
:100010000C94761C0C94051C0C94E1030C94E103E5
:100020000C94E1030C94E1030C94E1030C94E103C0
:100030000C94E1030C94E1030C94E1030C94E103B0
:100040000C949C1A0C94E1030C946A1A0C94441AB4
:100050000C94E1030C94E1030C94E1030C94E10390
:100060000C94E61A0C94E10305A84CCDB2D44EB919
:100070003836A9020C50B9918688083CA6AAAA2A4B
:10008000BE000000803F00000B110D01F0180007BA
:10009000110D02F027000B110D01F03F000B110DA7
:1000A00001F057000C110D01F071000B110D01F062
:1000B00089000B110D01F0A1000C110D01F0BB0026
:1000C0000C110D01F0D5000B110D01F0ED00040C29
:1000D0000601F51F07F9FF78FF1FC1F83F07E0FC95
:1000E0001F83F07F0FE3DFF1FE1F00061C7FFFE19F
:1000F000C3870E1C3870E1C3870E1F0FF9FFF8FE8F
:100100000FC1C0380F01C0F83C1F0780E03FFFFF60
:10011000FFE01F0FFBFF78FE1E03C0707C0FC03C8A
:1001200003807E0FE3FFFBFE1F0007C07C0FC0FCB7
:100130001BC3BC33C73CE3CC3CFFFFFFFFF03C03D9
:10014000C03C03C03FEFFDFFB80600DE1FF7FFF124
:10015000E01C03807E0FE3FFF3FE1F001F87F9FF03
:10016000B87F01DF3FF7FFF1FC1F83F07E0EE3DF76
:10017000F1FE1F00FFFFFFFFF00E01C03C03807087
:100180000700E00E01E01C01C01C03C03C001F077B
:10019000FC7FCF1EE0EE0E71E3F87FCF1EE0EE0F86
:1001A000E0FF1EFFE7FC1F001F0FF1FF78FE0FC1ED
:1001B000F83F07F1FFFDFF8F700FC3FFF3FC1F0037
:1001C000FFF000000FFFD300860030003A001D0052
:1001D000000000003E5B4F5B3E3E6B4F6B3E1C3EA3
:1001E0007C3E1C183C7E3C181C577D571C1C5E7FB7
:1001F0005E1C00183C1800FFE7C3E7FF0018241836
:1002000000FFE7DBE7FF30483A060E26297929266A
:10021000407F050507407F05253F5A3CE73C5A7F54
:100220003E1C1C08081C1C3E7F14227F22145F5FAA
:10023000005F5F06097F017F006689956A606060E4
:10024000606094A2FFA29408047E040810207E201F
:100250001008082A1C08081C2A08081E1010101074
:100260000C1E0C1E0C30383E3830060E3E0E0600BA
:100270000000000000005F00000007000700147F7E
:10028000147F14242A7F2A122313086462364956E5
:1002900020500008070300001C2241000041221CDE
:1002A000002A1C7F1C2A08083E08080080703000C5
:1002B0000808080808000060600020100804023EDA
:1002C0005149453E00427F4000724949494621411B
:1002D000494D331814127F1027454545393C4A498A
:1002E00049314121110907364949493646494929C9
:1002F0001E000014000000403400000008142241D9
:100300001414141414004122140802015909063E61
:10031000415D594E7C1211127C7F494949363E415C
:100320004141227F4141413E7F494949417F09097D
:1003300009013E414151737F0808087F00417F4118
:10034000002040413F017F081422417F404040404F
:100350007F021C027F7F0408107F3E4141413E7FA7
:10036000090909063E4151215E7F0919294626499E
:1003700049493203017F01033F4040403F1F204075
:10038000201F3F4038403F6314081463030478047F
:10039000036159494D43007F414141020408102047
:1003A000004141417F0402010204404040404000BE
:1003B0000307080020545478407F284444383844C8
:1003C000444428384444287F385454541800087E44
:1003D000090218A4A49C787F0804047800447D4096
:1003E000002040403D007F1028440000417F400035
:1003F0007C047804787C080404783844444438FC4D
:100400001824241818242418FC7C080404084854D0
:1004100054542404043F44243C4040207C1C20408D
:10042000201C3C4030403C44281028444C90909084
:100430007C4464544C4400083641000000770000BE
:10044000004136080002010204023C2623263C1E1D
:10045000A1A161123A4040207A385454555921558F
:1004600055794122545478422155547840205455AE
:1004700079400C1E527212395555555939545454FD
:100480005939555454580000457C410002457D427D
:100490000001457C407D1211127DF0282528F07C5A
:1004A000545545002054547C547C0A097F493249F4
:1004B0004949323A4444443A324A4848303A414140
:1004C000217A3A42402078009DA0A07D3D424242E0
:1004D0003D3D4040403D3C24FF2424487E49436646
:1004E0002B2FFC2F2BFF0929F620C0887E09032023
:1004F000545479410000447D413048484A323840E4
:1005000040227A007A0A0A727D0D19317D26292946
:100510002F28262929292630484D40203808080848
:100520000808080808382F10C8ACBA2F102834FA69
:1005300000007B000008142A142222142A140855F3
:1005400000550055AA55AA55AAFF55FF55FF0000B2
:1005500000FF00101010FF00141414FF001010FF13
:1005600000FF1010F010F0141414FC001414F70025
:10057000FF0000FF00FF1414F404FC141417101FF4
:1005800010101F101F1414141F00101010F0000082
:1005900000001F101010101F10101010F01000009D
:1005A00000FF101010101010101010FF10000000AD
:1005B000FF140000FF00FF00001F10170000FC04E4
:1005C000F414141710171414F404F40000FF00F7C7
:1005D00014141414141414F700F71414141714102A
:1005E000101F101F141414F4141010F010F0000059
:1005F0001F101F0000001F14000000FC140000F07A
:1006000010F01010FF10FF141414FF141010101F1E
:1006100000000000F010FFFFFFFFFFF0F0F0F0F02F
:10062000FFFFFF0000000000FFFF0F0F0F0F0F384C
:1006300044443844FC4A4A4A347E02020606027E9A
:10064000027E0263554941633844443C04407E20A5
:100650001E2006027E020299A5E7A5991C2A492AB6
:100660001C4C7201724C304A4D4D30304878483045
:10067000BC625A463D3E494949007E0101017E2A3D
:100680002A2A2A2A44445F444440514A4440404470
:100690004A51400000FF0103E080FF000008086BA2
:1006A0006B083612362436060F090F06000018189C
:1006B0000000001010003040FF0101001F01011E6A
:1006C00000191D1712003C3C3C3C000000000000DB
:1006D0000103070F1F3F7F0080C0E0F0F8FCFE0021
:1006E00000000800020100000304070000000000F1
:1006F00000000000000000240027002A00DB40A4C6
:10070000A62EAFDA0281DA1281DA02818F2000A1EF
:10071000C8D300408DAED580A80000000025002879
:10072000002B002200FF2100000000002300260013
:100730002900000102030405060700010203040565
:100740000001020304050404040404040404020276
:100750000202020203030303030301020408102040
:1007600040800102040810200102040810208A1DA4
:10077000D42611241FBECFEFD8E0DEBFCDBF12E0DC
:10078000A0E0B1E0ECECF6E502C005900D92AC31D2
:10079000B107D9F724E0ACE1B2E001C01D92A2326A
:1007A000B207E1F713E0C8EBD3E004C02197FE01E4
:1007B0000E94222AC73BD107C9F70E940E1E0C9443
:1007C000592B0C94000090E0FC01E65AF84F24915C
:1007D000FC01EA5BF84F3491323061F5409132030D
:1007E000422B409332038E5C984FFC01A49132302F
:1007F00089F5B0E0AA0FBB1FAC5DBC4F6D937C9335
:10080000ECE2F7E0A591B4918C91809323038BE601
:1008100090E090932203809321038091680081608F
:1008200080936800A0912103B0912203EC912E2BBC
:100830002C930895333031F440913103422B40938F
:100840003103D1CF343079F640913003422B4093BD
:100850003003C9CF3330C1F4B0E0AA0FBB1FAB5E89
:10086000BC4F6D937C93EEE2F7E0A591B4918C912F
:10087000809314038CE690E09093220380932103ED
:10088000809168008260CCCF343061F6B0E0AA0F6E
:10089000BB1FAC5FBC4F6D937C93E0E3F7E0A59189
:1008A000B4918C91809303038DE690E090932203A2
:1008B00080932103809168008460B2CF91E090938F
:1008C000FE028093FD021092FC021092FB0208953A
:1008D0009091FA028091F9022FEF3FEF981748F4B8
:1008E000E92FF0E0E752FD4F208130E09F5F9093C9
:1008F000FA02C90108959091FA028091F9022FEF4E
:100900003FEF981748F4E92FF0E0E752FD4F2081C0
:1009100030E09F5F9093FA02C90108950895809195
:10092000F9029091FA02891B990B08951092020125
:100930001092A8021092A702089510920101089542
:10094000109203011092A8021092A7020895089530
:100950000895AF92BF92CF92DF92EF92FF920F93E2
:100960001F93CF93DF936C017B018B01040F151F45
:10097000EB015E01AE18BF08C017D10759F06991AD
:10098000D601ED91FC910190F081E02DC601099511
:10099000892B79F7C501DF91CF911F910F91FF90BE
:1009A000EF90DF90CF90BF90AF900895FC01538DF2
:1009B000448D252F30E0842F90E0821B930B541739
:1009C00010F0CF96089501970895FC01918D828DC6
:1009D000981761F0A28DAE0FBF2FB11D5D968C915F
:1009E000928D9F5F9F73928F90E008958FEF9FEF9E
:1009F0000895FC01918D828D981731F0828DE80F5A
:100A0000F11D858D90E008958FEF9FEF0895FC0113
:100A1000918D228D892F90E0805C9F4F821B9109E0
:100A20008F739927089586E393E00E94070521E0DC
:100A3000892B09F420E0822F089580E090E0892B33
:100A400029F00E94130581110C9400000895FC0107
:100A5000A48DA80FB92FB11DA35ABF4F2C91848D1F
:100A600090E001968F739927848FA689B7892C937C
:100A7000A089B1898C91837080648C93938D848DCF
:100A8000981306C00288F389E02D80818F7D8083D2
:100A90000895EF92FF920F931F93CF93DF93EC0192
:100AA00081E0888F9B8D8C8D98131AC0E889F98915
:100AB000808185FF15C09FB7F894EE89FF89608318
:100AC000E889F98980818370806480839FBF81E099
:100AD00090E0DF91CF911F910F91FF90EF900895DB
:100AE000F62E0B8D10E00F5F1F4F0F731127E02EB6
:100AF0008C8D8E110CC00FB607FCFACFE889F989EE
:100B0000808185FFF5CFCE010E942705F1CFEB8DC7
:100B1000EC0FFD2FF11DE35AFF4FF0829FB7F894C1
:100B20000B8FEA89FB8980818062CFCFCF93DF93DF
:100B3000EC01888D8823B9F0AA89BB89E889F989F5
:100B40008C9185FD03C0808186FD0DC00FB607FC2A
:100B5000F7CF8C9185FFF2CF808185FFEDCFCE015D
:100B60000E942705E9CFDF91CF910895833081F06E
:100B700028F4813099F08230A9F008958730A9F0E7
:100B80008830C9F08430B1F4809180008F7D03C03B
:100B9000809180008F7780938000089584B58F774F
:100BA00084BD089584B58F7DFBCF8091B0008F7791
:100BB0008093B00008958091B0008F7DF9CFCF93DE
:100BC000DF93282F30E0F901E152F94F8491F901C8
:100BD000E65AF84FD491F901EA5BF84FC491CC235F
:100BE000A1F081110E94B605EC2FF0E0EE0FFF1F7F
:100BF000E85DF84FA591B491EC91ED2381E090E090
:100C000009F480E0DF91CF91089580E090E0FACF81
:100C10001F93CF93DF93282F30E0F901E152F94F72
:100C20008491F901E65AF84FD491F901EA5BF84F43
:100C3000C491CC23A9F0162F81110E94B605EC2F88
:100C4000F0E0EE0FFF1FE75EF84FA591B4918FB76C
:100C5000F894EC91111108C0D095DE23DC938FBF7E
:100C6000DF91CF911F910895DE2BF8CFCF93DF93C3
:100C700090E0FC01E65AF84F24918A5B984FFC0102
:100C800084918823D1F090E0880F991FFC01ED50EA
:100C9000F94FA591B491FC01E75EF84FC591D4914D
:100CA000623071F49FB7F8943C91822F8095832332
:100CB0008C93E8812E2B28839FBFDF91CF910895DD
:100CC0008FB7F894EC912E2B2C938FBFF6CF3FB7B4
:100CD000F8948091810290918202A0918302B09158
:100CE000840226B5A89B05C02F3F19F00196A11DCF
:100CF000B11D3FBFBA2FA92F982F8827BC01CD0166
:100D0000620F711D811D911D42E0660F771F881FC4
:100D1000991F4A95D1F708958F929F92AF92BF92F3
:100D2000CF92DF92EF92FF924B015C010E94670627
:100D30006B017C010E9467066C197D098E099F0971
:100D4000683E734081059105A8F321E0821A91085D
:100D5000A108B10888EEC80E83E0D81EE11CF11C82
:100D600081149104A104B10429F7FF90EF90DF9062
:100D7000CF90BF90AF909F908F900895EF92FF9289
:100D80000F931F93CF93DF93EC01EC80FD806E15E2
:100D90007F050CF070C057FF04C0240F351F50E0D2
:100DA00040E08E819F81FA01E20FF31F8E179F07AB
:100DB0001CF49C01241B350B121613060CF05BC0AF
:100DC000922F842F8695869586958E9DD0018F9D36
:100DD000B00D11246A0F7B1FAF8DB8A1A60FB71FEE
:100DE000477049F188E0841B482F682F70E0FB01B1
:100DF000E952F94FE491281708F063C0621B7109AA
:100E00002FEF30E002C0359527956A95E2F7E2238F
:100E10000130110539F0B0F10230110561F58C9106
:100E2000E82702C08C91E82BEC93941720F12C81D9
:100E30003D81A20FB31FE92FE41BE83078F00230A8
:100E4000110521F58E2F9C9190959C932C813D81CD
:100E5000A20FB31F88508830B0F7E770EE2359F027
:100E6000F0E0E153F94FE49101301105F9F010F190
:100E70000230110519F1DF91CF911F910F91FF9071
:100E8000EF900895E0958C91E823CECF81E0011595
:100E9000110509F480E081959E2F8C932C813D8172
:100EA000A20FB31F98509830C0F7D7CF8C91E82B82
:100EB000EC93E1CFE0958C91E823FACF8C91E82771
:100EC000F7CF0130110509F4ADCFE0F20230110582
:100ED00009F4A5CFAE0DBF1DAECF0F931F93CF93D7
:100EE000DF9377FF04C0260F371F70E060E0DC015E
:100EF0001496CD91DC91FB01E20FF31FCE17DF07B3
:100F00001CF49E01261B370B121613064CF5FA0132
:100F100057FD3796A3E0F595E795AA95E1F7EC9F85
:100F2000D001ED9FB00DFC9FB00D11246A0F7B1F07
:100F3000DC015F96ED91FC91E60FF71F4770552796
:100F400081E090E001C0880F4A95EAF7482F013010
:100F5000110559F0A8F02E0F3F1F02301105E1F0E6
:100F6000DF91CF911F910F9108952E0F3F1FE21730
:100F7000F307B1F38191DF011197842B8C93F7CFA5
:100F800080952E0F3F1FE217F30751F39191DF0178
:100F9000119798239C93F7CFE217F30709F38191F8
:100FA000DF01119784278C93F7CF0F931F93FA01DA
:100FB000DC0156964C9156974230E9F04330A1F14E
:100FC000413061F514964D915C91DA01AE1BBF0B77
:100FD000FD01E21BF30B77FD0BC0DC0116964D9172
:100FE0005C916417750724F4AB01BF010E946D0783
:100FF0001F910F91089514964D915C91DA01A61BF3
:10100000B70BBD0161507109DC0116964D915C91E1
:10101000DA01AE1BBF0BFD01E21BF30B77FDE8CF3E
:10102000AF010E94BE06E4CF16964D915C91DA01A5
:10103000A61BB70BBD0161507109CDCF0F931F9354
:10104000FA01DC0156964C9156974230A9F0433094
:1010500091F1413019F514964D915C91DA01AE1B76
:10106000BF0BFD013197F7FD04C0AB01BF010E942A
:10107000BE061F910F91089514964D915C91DA016F
:10108000A61BB70BBD01DC0116964D915C91DA01F0
:10109000AE1BBF0BFD013197621B730BF7FDE9CF50
:1010A000DC0116964D915C91E417F50714F7AF013A
:1010B0000E946D07DECF16964D915C91DA01A61B5A
:1010C000B70BBD01621B730BCECFFC0177FD64C073
:1010D00080859185681779070CF05EC057FD5CC06C
:1010E00082859385481759070CF056C0868982304F
:1010F000B1F0833029F1813041F484819581841BE2
:10110000950BAB01BC01615071092130310509F12A
:1011100008F443C02230310509F463C00895848186
:101120009581DC01A61BB70BBD0161507109868159
:101130009781DC01A41BB50BAD0141505109E5CFEE
:1011400086819781861B970BBA01AC0141505109EA
:10115000DCCFCA0157FD0796A3E095958795AA9520
:10116000E1F7A481B5818A9F90018B9F300D9A9FF2
:10117000300D1124620F731F078CF0A1E02DE60FD4
:10118000F71F4770552721E030E001C0220F4A9534
:10119000EAF78081822B80830895CA0157FD079664
:1011A00033E0959587953A95E1F7A481B5818A9FBB
:1011B00090018B9F300D9A9F300D1124620F731F89
:1011C000078CF0A1E02DE60FF71F4770552781E04F
:1011D00090E001C0880F4A95EAF7809590818923B5
:1011E000DACFCA0157FD079623E0959587952A9592
:1011F000E1F7A481B5818A9F90018B9F300D9A9F62
:10120000300D1124620F731F078CF0A1E02DE60F43
:10121000F71F4770552721E030E001C0220F4A95A3
:10122000EAF780818227B7CF08958EBD00000DB404
:1012300007FEFDCF8EB508958CBD9DBD0895089520
:10124000FC016370668B84819581268137816130D2
:1012500039F0633029F0918780873387228708959A
:10126000318720879387828708952F923F924F92EC
:101270005F926F927F928F929F92AF92BF92CF9226
:10128000DF92EF92FF920F931F93CF93DF93CDB72F
:10129000DEB76A970FB6F894DEBF0FBECDBF9A8F48
:1012A000898F7A8369834A01D22E18870F83370189
:1012B000BC2CDC0159962D913C915A972115310592
:1012C00009F015C118968D919C91199768177907A7
:1012D0000CF0D7C11A968D919C91481759070CF0C4
:1012E000D0C14C2C512CB6E0CB9E600D711D112449
:1012F0007C876B87161617060CF0C3C1EA2DF0E049
:10130000FA87E98793E0EE0FFF1F9A95E1F7F88BD4
:10131000EF87CF01840F951F181619060CF0B1C185
:10132000A98DBA8D58968C91811104C0BFEABD1564
:1013300008F4D394A98DBA8DED91FC911197028494
:10134000F385E02DCD010995B5E0DB9EC0011124A8
:10135000E981FA81FC83EB83312C212C9C01215300
:101360003E4F388F2F8B4A2D50E05E8B4D8BEF898F
:10137000F88DE20DF31D44919E828D82D12CC12CFB
:1013800069817A81620D731D7A8B698B842F90E05D
:101390009C8B8B8BE98DFA8DA081B18140FF82C03F
:1013A000F1E0BF126FC0AF126DC01C96ED91FC91C1
:1013B0002F813885A4014C0D5D1D69897A89898D3D
:1013C0009A8D0995EB89FC89F595E7954E2F5FEF8E
:1013D000C51AD50A6D817E818D899E89680F791F16
:1013E0007E836D8398E0C916D10481F6AFEF2A1A87
:1013F0003A0AEB81FC81E40DF51DFC83EB83F5E0FB
:101400002F16310409F0B3CF2F8138852615370503
:10141000B9F0A98DBA8DED91FC91B1E0BB1257C026
:10142000AB1255C069817A816B5F7F4F0088F1896B
:10143000E02D830128E030E0A401898D9A8D099583
:10144000A98DBA8DED91FC9111970688F789E02D51
:10145000CD016A960FB6F894DEBF0FBECDBFDF9107
:10146000CF911F910F91FF90EF90DF90CF90BF90A1
:10147000AF909F908F907F906F905F904F903F9034
:101480002F9009941E96ED91FC91EF80F8840985C8
:101490001A8592014D815E816B817C81898D9A8D47
:1014A000099590CF2F8138852615370509F48ACF05
:1014B00031E0B31207C0A31205C01C96ED91FC9158
:1014C000930178CF1E96ED91FC917301E0CF6B856F
:1014D0007C85641975090684F785E02D73010F85F5
:1014E00018899201A401898D9A8D0995A9CFF901D6
:1014F00034969491329745915491D91AB7E0DB9E76
:10150000400D511D1124F901259134913C8B2B8BF9
:10151000FA0125903490FA01329674903196349104
:10152000398B329664903196449041E04C1518F016
:101530004A1508F07FC0662D062C000C770B7C83C3
:101540006B83842D042C000C990B9E838D83A98DB5
:10155000BA8DED91FC9111970284F385E02DCD01B8
:101560000995512CD12CC12CEA2DF0E0FA87E9879E
:101570002B2D30E03C872B87A401440D511D47FCE7
:101580005A95588F4F8B69817A81660D711D67FC62
:101590007A957E876D877989C71608F051CF2C2DF3
:1015A00030E04D815E81420F531FA985BA854A9F65
:1015B000C0014B9F900D5A9F900D1124FC01E80D26
:1015C000F91DF88BEF87852D612C4F89588D420FBF
:1015D000531F5E8B4D8B671408F050C04424439416
:1015E000480E877041F4C1010196EB89FC89E20D38
:1015F000F31DD4901C01D7FE19C0A98DBA8DED91B1
:10160000FC91662D70E0B1E0BB1219C0AB1217C09F
:101610002D853E85620F731F0484F585E02D2F8193
:1016200038854D895E89898D9A8D0995DD0C639485
:10163000842DD1CF1E821D821C821B8288CF4B81BC
:101640005C81640F751FAB85BC856A9FC0016B9F71
:10165000900D7A9F900D112469817A81680F791F0E
:101660000684F785E02DEF80F88409851A859D01B1
:101670004F855889898D9A8D0995D8CF570CC39479
:101680008ACF6A960FB6F894DEBF0FBECDBFDF914A
:10169000CF911F910F91FF90EF90DF90CF90BF906F
:1016A000AF909F908F907F906F905F904F903F9002
:1016B0002F9008958F929F92AF92CF92EF92FF92C8
:1016C0000F931F93CF93DF93EC01262F898D9A8D73
:1016D000009709F051C06A30D1F41D861C868D89AF
:1016E00048E0849F900111248E859F85820F931F6F
:1016F0009F878E8781E090E0DF91CF911F910F91BE
:10170000FF90EF90CF90AF909F908F9008956D30A5
:1017100089F3CC88AD888F898823C1F08C859D851D
:1017200036E0C39E800D911D1124488559854817C8
:10173000590764F44E855F851D861C8638E0A39E9C
:10174000C0011124840F951F9F878E87EA88FB882C
:10175000088919894E855F856C857D85CE010E943B
:1017600035092C898C859D8546E0249F800D911D2F
:1017700011249D878C87BECF6A3069F41D861C8634
:10178000FC013896E4912D898E859F85E29F800D1E
:10179000911D1124ADCF6D3009F4ACCFFC0134960E
:1017A0003491631708F4A6CF3296E491E61708F453
:1017B000A1CFFC01329685909490462F431B342F85
:1017C00047E0349F800C911C1124F401329634912F
:1017D0003196E4913323A9F1EE2399F1CC88F401F9
:1017E0003596E491AD884F89442301F10E2E000C0B
:1017F000FF0BE30FF11DCE9EA001CF9E500D1124D3
:101800006C857D85460F571F688579856417750738
:101810006CF44E855F851D861C86FC013896E4912C
:10182000AE9E400D511D11245F874E87EA88FB88CC
:10183000088919894E855F856C857D85CE010E945A
:101840003509F4013496E4912C898C859D85E29FBD
:10185000800D911D11248DCF6F927F928F929F9258
:10186000AF92BF92CF92DF92EF92FF920F931F93AE
:10187000CF93DF93EC016B015A0139014801E881F4
:10188000F9810284F385E02D0995E881F9810288C8
:10189000F389E02D87019301A501B601CE010995D9
:1018A000A501480D591D41505109E881F98102886F
:1018B000F389E02D9301B601CE010995E881F98104
:1018C0000088F189E02D9401A501B601CE010995AA
:1018D000C60CD71CB60161507109E881F9810088F6
:1018E000F189E02D9401A501CE010995E881F981E6
:1018F0000688F789E02DCE01DF91CF911F910F91DE
:10190000FF90EF90DF90CF90BF90AF909F908F901F
:101910007F906F9009946F927F928F929F92AF9277
:10192000BF92CF92DF92EF92FF920F931F93CF93CC
:10193000DF935C01EB016A01490138018701DC0199
:10194000ED91FC916217730719F5641675062CF07A
:10195000962D872D3A01C92ED82E960126193709C2
:101960002F5F3F4F048CF58DE02DA301BE01C50113
:101970000995DF91CF911F910F91FF90EF90DF902C
:10198000CF90BF90AF909F908F907F906F90089571
:101990004615570591F42617370724F0892D4B017A
:1019A000C22FD82F9E01281939092F5F3F4F068C6F
:1019B000F78DE02DA601B401DACF0284F385E02D86
:1019C0000995D501ED91FC910488F589E02D8301FD
:1019D0009401A601BE01C5010995D501ED91FC91C7
:1019E0000688F789E02DC501DF91CF911F910F91F6
:1019F000FF90EF90DF90CF90BF90AF909F908F902F
:101A00007F906F900994EF92FF920F931F93DC01E8
:101A10001A960D911C911B9718962D913C91199730
:101A2000ED91FC9100A0F1A1E02D7B0150E040E0A0
:101A300070E060E009951F910F91FF90EF9008957D
:101A40004F925F926F927F928F929F92AF92BF92CE
:101A5000CF92DF92EF92FF920F931F93CF93DF937A
:101A60006C012B015A0139014801DC01ED91FC9117
:101A70000284F385E02D0995E201640C751CD60102
:101A8000ED91FC91C615D7055CF40088F189E02D35
:101A900087019401A501BE01C60109952196EFCFEA
:101AA0000688F789E02DC601DF91CF911F910F9134
:101AB000FF90EF90DF90CF90BF90AF909F908F906E
:101AC0007F906F905F904F9009948F929F92AF920A
:101AD000BF92CF92DF92EF92FF920F931F93CF931B
:101AE000DF93EC015B014A016901E881F98102841D
:101AF000F385E02D099595012C0D3D1D21503109EF
:101B0000E881F9810488F589E02D78018401A40138
:101B1000B501CE010995E881F9810688F789E02DA4
:101B2000CE01DF91CF911F910F91FF90EF90DF9049
:101B3000CF90BF90AF909F908F9009948F929F927B
:101B4000AF92BF92CF92DF92EF92FF920F931F93CB
:101B5000CF93DF93EC015B014A0169017801E881D1
:101B6000F9810284F385E02D0995C80CD91C860102
:101B700001501109E881F9810488F589E02D95016A
:101B8000A401B501CE010995E881F9810688F7899C
:101B9000E02DCE01DF91CF911F910F91FF90EF903B
:101BA000DF90CF90BF90AF909F908F900994EF926D
:101BB000FF920F931F93DC01ED91FC9100A0F1A126
:101BC000E02D09951F910F91FF90EF9008950F93CD
:101BD0001F93DC01ED91FC91068CF78DE02D0995AA
:101BE0001F910F9108950F931F93DC01ED91FC91CC
:101BF000048CF58DE02D09951F910F910895DC015E
:101C0000ED91FC910084F185E02D09942F923F9293
:101C10004F925F926F927F928F929F92AF92BF92FC
:101C2000CF92DF92EF92FF920F931F93CF93DF93A8
:101C30007C016B01EA0181E090E05C01A41AB50A25
:101C400066247724641A750A660C771C10E000E09D
:101C500088248394912C822F8470582E822F827036
:101C6000482E822F8870382E2170222E0C171D07C7
:101C70000CF079C0B7FC06C0219782E0680E711C99
:101C8000A60CB71C0F5F1F4F82E0880E911CA80C9A
:101C9000B91C5520C1F021E030E0AE014C0D5D1DB6
:101CA000B701600F711F8FED93E00E94FF0D21E0DF
:101CB00030E0A601400F511FBE016E0D7F1D8FED5C
:101CC00093E00E94FF0D4420C1F021E030E0A60126
:101CD0004C1B5D0BB701600F711F8FED93E00E94ED
:101CE000FF0D21E030E0A601401B510BBE016E0D3F
:101CF0007F1D8FED93E00E94FF0D3320C1F021E0A6
:101D000030E0A601400F511FB7016C1B7D0B8FED1A
:101D100093E00E94FF0D21E030E0AE014C0D5D1D0F
:101D2000B701601B710B8FED93E00E94FF0D222025
:101D300009F49CCF21E030E0A601401B510BB70114
:101D40006C1B7D0B8FED93E00E94FF0D21E030E0D6
:101D5000A6014C1B5D0BB701601B710B8FED93E06F
:101D60000E94FF0D83CFDF91CF911F910F91FF90C4
:101D7000EF90DF90CF90BF90AF909F908F907F902B
:101D80006F905F904F903F902F9008952F923F92C9
:101D90004F925F926F927F928F929F92AF92BF927B
:101DA000CF92DF92EF92FF920F931F93CF93DF9327
:101DB00000D000D0CDB7DEB72C013B011A0179016C
:101DC0001C830B835801AA0CBB1C4A018A189B0870
:101DD0006801C40CD51C01E010E09401AB01B60110
:101DE0008FED93E00E94E70DC701860D971D9A8342
:101DF0008983AC01415051099401B6018FED93E004
:101E00000E94E70DEA18FB088B819C81680E791E01
:101E10009701A301B2018FED93E00E94F30D420CF4
:101E2000531CB201615071099701A3018FED93E03A
:101E30000E94F30D21E04B815C81B301C6010E9439
:101E4000060E8B819C81481A590A91E0491A510863
:101E500022E04B815C81B301C2010E94060EE98041
:101E6000FA808B819C81E81AF90A91E0E91AF1085D
:101E700024E04B815C81B701C2010E94060E28E07C
:101E80004B815C81B701C6010F900F900F900F90AE
:101E9000DF91CF911F910F91FF90EF90DF90CF9046
:101EA000BF90AF909F908F907F906F905F904F907A
:101EB0003F902F900C94060E2F923F924F925F927C
:101EC0006F927F928F929F92AF92BF92CF92DF924A
:101ED000EF92FF920F931F93CF93DF9300D000D028
:101EE000CDB7DEB77C018B015C834B8381E090E052
:101EF0005C01A41AB50A1A01319421943108220C0C
:101F0000331C460F571F21E030E0B7018FED93E0FF
:101F10000E94FF0DA8012B813C81421B530B21E045
:101F200030E0B7018FED93E00E94FF0D6B817C8163
:101F30006E0D7F1D21E030E0A8018FED93E00E943F
:101F4000FF0DB7018B819C81681B790B21E030E08C
:101F5000A8018FED93E00E94FF0D21E030E03A836D
:101F60002983D12CC12CB7FC0AC08B819C8101979D
:101F70009C838B8392E0290E311CA20CB31C2FEFA3
:101F8000C21AD20A89819A8102969A838983A80EFD
:101F9000B91E36016E0C7F1C21E030E08B809C80E6
:101FA000800E911EA401B3018FED93E00E94FF0DFE
:101FB00027014C185D0821E030E0A401B2018FED4B
:101FC00093E00E94FF0D21E030E048018B819C816D
:101FD000881A990AA401B3018FED93E00E94FF0DC6
:101FE00021E030E0A401B2018FED93E00E94FF0DEB
:101FF0004601800E911E21E030E0A4016B807C80C0
:102000006E0C7F1CB3018FED93E00E94FF0D21E069
:1020100030E0A40127018B819C81481A590AB20142
:102020008FED93E00E94FF0D48018C189D0821E080
:1020300030E0A401B3018FED93E00E94FF0D21E099
:1020400030E0A401B2018FED93E00E94FF0D2B81DF
:102050003C81C216D3060CF486CF0F900F900F90E0
:102060000F90DF91CF911F910F91FF90EF90DF9034
:10207000CF90BF90AF909F908F907F906F905F9028
:102080004F903F902F9008952F923F924F925F92E2
:102090006F927F928F929F92AF92BF92CF92DF9278
:1020A000EF92FF920F931F93CF93DF9300D000D056
:1020B00000D0CDB7DEB73C016A013E832D83FC82A0
:1020C000EB825801A41AB50AB7FE03C0B194A194DB
:1020D000B1088D809E80861A970A97FE03C091945E
:1020E000819491088A149B045CF0902F812F0D81BC
:1020F0001E819D838E839C2D8D2D6B01692F782FE2
:102100000C151D055CF09D818E817E836D83692F8A
:10211000782F902F812F8601C92ED82E1601201AD4
:10212000310A2B012D813E81421A530A57FE03C00A
:10213000519441945108710137FE03C03FEFE31AF7
:10214000F30AF594E7948D819E81861797075CF5D5
:10215000A1E0B0E0BA83A983C016D1064CF1D30147
:10216000ED91FC910484F585E02D2B813C81A80143
:102170006D817E818A149B041CF04D815E81B801C3
:10218000C3010995E418F508F7FE0AC02D813E81C8
:1021900089819A81280F391F3E832D83E20CF31C1D
:1021A0000F5F1F4FD9CF2FEF3FEF3A832983D4CF53
:1021B00026960FB6F894DEBF0FBECDBFDF91CF914C
:1021C0001F910F91FF90EF90DF90CF90BF90AF9055
:1021D0009F908F907F906F905F904F903F902F9047
:1021E0000895089520915D02260F3327331F213271
:1021F0003105ECF42091D302FC0190E080E0243022
:1022000069F082E00895A0915D022191AC01435CE8
:102210005D4FA40FB52FB11D2C930196861798F32F
:1022200080915D02680F60935D0280E0089581E017
:1022300008959B01AC0160E074E284EF90E00E949D
:102240000D27205131094109510956954795379578
:1022500027952093B80008951092D30281E08093CF
:10226000D2021092CD0261E082E10E94080661E094
:1022700083E10E940806E9EBF0E080818E7F808395
:1022800080818D7F808388E48093B80085E480938B
:10229000BC000895CF93DF9391E090933C02882394
:1022A000B9F0C091B800D091BA008091BC008A7B8F
:1022B0008093BC0060E082E10E94080660E083E158
:1022C0000E9408060E942C11D093BA00C093B80057
:1022D000DF91CF910895E091FA028091F902E81719
:1022E00030F4F0E0E752FD4F808190E008958FEFE9
:1022F0009FEF0895CF92DF92EF92FF920F931F937B
:10230000CF93DF937C01CB018A012091FE0222232F
:1023100089F0EB016B01C40ED51ECC15DD0569F00B
:102320006991D701ED91FC910190F081E02DC701F9
:102330000995F3CF642F0E94F210C801DF91CF916D
:102340001F910F91FF90EF90DF90CF900895CF9362
:10235000DF931F92CDB7DEB769832091FE0222235F
:10236000F9F02091FB02203258F021E030E0FC012E
:102370003383228390E080E00F90DF91CF91089526
:102380008091FC02E82FF0E0E45EFD4F998190839C
:102390008F5F8093FC028093FB0281E090E0ECCFA2
:1023A00061E0CE0101960E94F210F7CF682F83ED15
:1023B00093E00C94A711CF92DF92EF92FF920F93CC
:1023C0001F93CF93DF93D091FB0281E0D13208F0CD
:1023D0009CC0C091FD020E9467066B017C01809148
:1023E000D30281116CC082E08093D30281E080939C
:1023F000D2028FEF8093D1021092D002D093CF02FD
:10240000ACE1B2E0EDEAF2E080E0D8138DC01092CA
:10241000CE028091CE02CC0FC82BC093CE02809109
:10242000CD02813009F084C01092CD020E9467066F
:102430006B017C018091CE028093BB008091D5021C
:102440009091D602A091D702B091D802892B8A2B05
:102450008B2BA1F00E9467060091D5021091D60245
:102460002091D7023091D8026C197D098E099F09FD
:10247000061717072807390708F442C08091BC00E7
:1024800083FDD8CF85EC8093BC000E9467066B016A
:102490007C018091D302823009F44CC08091D1023A
:1024A0008F3F09F469C08091D102803209F466C07F
:1024B0008091D102803309F463C084E026C080910A
:1024C000D5029091D602A091D702B091D802892B63
:1024D0008A2B8B2B09F483CF0E9467060091D502CB
:1024E0001091D6022091D7023091D8026C197D0943
:1024F0008E099F09061717072807390708F06FCFBD
:102500008091D4020E944A1185E01092FC02109240
:10251000FB021092FE02DF91CF911F910F91FF906D
:10252000EF90DF90CF9008959D9191938F5F6DCF45
:1025300085EEA9CF8091D5029091D602A091D702C5
:10254000B091D802892B8A2B8B2B09F4A2CF0E9441
:1025500067060091D5021091D6022091D7023091E2
:10256000D8026C197D098E099F09061717072807DD
:10257000390708F08ECFC4CF80E0C7CF82E0C5CF47
:1025800083E0C3CFFF920F931F93CF93DF93F82E77
:10259000D92FC62F8091FC039091FD03892B09F45C
:1025A00047C0809100040E945E048091FC039091DA
:1025B000FD03DC01ED91FC910190F081E02D60E0E4
:1025C00009950F2D1D2FD1E0C1508091FC039091F2
:1025D000FD03CF3F31F1D03298F00E94DB118091A2
:1025E00000040E945E048091FC039091FD03DC01D5
:1025F000ED91FC910190F081E02D60E00995D1E032
:102600008091FC039091FD03F8016491DC01ED9150
:10261000FC910190F081E02D0995DF5F0F5F1F4F66
:10262000D3CFDF91CF911F910F91FF900C94DB11CD
:10263000E0910C04F0910D0490818091120480953A
:10264000892380830F2D1D2FC15008F438C0F80155
:1026500084912091FA033091FB03232B29F00E94EF
:1026600015090F5F1F4FF0CF28E030E040E8E09100
:102670000804F091090490911004582F5423D9F0C4
:102680005081952B9083E0910A04F0910B04908186
:1026900050911104952B9083E0910A04F0910B0462
:1026A00050819091110490959523908346952150E7
:1026B0003109E9F6D6CF508190959523E3CFDF918C
:1026C000CF911F910F91FF9008951F93CF93DF93A8
:1026D000EC018D8D9E8D892BF9F0162F89A10E941A
:1026E0005E048D8D9E8DDC01ED91FC910190F08159
:1026F000E02D60E009958D8D9E8DDC01ED91FC91C2
:102700000190F081E02D612F09958D8D9E8DDF91D7
:10271000CF911F910C94DB11ADA5BEA59C918BA907
:10272000809589238C938B8D9C8D892B31F0862FFE
:10273000DF91CF911F910C94150928E030E080E8DB
:10274000A9A5BAA599A9462F4823C1F04C91942B6D
:102750009C93ABA5BCA59C914AA9942B9C93ABA53B
:10276000BCA54C919AA9909594239C938695215051
:10277000310931F7DF91CF911F9108954C919095D8
:102780009423E6CFCF93C82F8091FC039091FD0353
:10279000892B01F16091160470911704809118043F
:1027A000909119040E9419116C2F8FED93E00E94F3
:1027B00065138091FC039091FD03892B11F16091C9
:1027C0001A0470911B0480911C0490911D04CF91F8
:1027D0000C9419118091FA039091FB03892B31F02D
:1027E00080911404909115040E941C09E0910E043C
:1027F000F0910F0490818091130480958923808348
:10280000D3CFE0910E04F0910F04808190911304D6
:10281000892B8083CF91089581E80E94C21380E0C4
:102820000E94C21364E170E080E090E00E948C0698
:1028300089ED0E94C21380E00E94C21368E270E03A
:1028400080E090E00C948C061F93CF93DF93EC0113
:10285000162F8D8D9E8D892BC9F06FA978AD89AD0E
:102860009AAD0E94191166EA111167EACE010E9421
:1028700065138D8D9E8D892BC9F06BAD7CAD8DADB3
:102880009EADDF91CF911F910C9419118B8D9C8D72
:10289000892B21F08DA99EA90E941C09EFA5F8A9FA
:1028A00090818CA9809589238083DDCFEFA5F8A93D
:1028B00080819CA9892B8083DF91CF911F910895FE
:1028C00090E080E008956AE00E94162A8295807F59
:1028D000890F089588E60E945E0490E080E00E94DF
:1028E000D611809199020E946314682F83ED93E0C2
:1028F0000E94A71180919A020E946314682F83EDB1
:1029000093E00E94A7118091A4020E946314682F93
:1029100083ED93E00E94A7118091A1020E946314AD
:10292000682F83ED93E00E94A7118091A2020E947C
:102930006314682F83ED93E00E94A7118091A00299
:102940000E946314682F83ED93E00E94A711809189
:1029500004010E946314682F83ED93E00E94A71185
:1029600083ED93E00C94DB111092990210929A027D
:102970001092A40281E08093A1028093A20280932E
:10298000A00286E1809304010E946A141092A302BF
:1029900010929F025C980895CF92DF92EF92FF927F
:1029A0000F931F93CF93DF93D82F0E9467066B017D
:1029B0007C018091D302811165C0CD2F81E080938D
:1029C000D3028093D2029FEF9093D1021092D00253
:1029D0009D0F9093CF028093CE028091CE02806DA6
:1029E0008093CE028091CD02813009F07FC0109299
:1029F000CD020E9467066B017C018091CE0280931C
:102A0000BB008091D5029091D602A091D702B091DF
:102A1000D802892B8A2B8B2BA1F00E94670600918C
:102A2000D5021091D6022091D7023091D8026C19AC
:102A30007D098E099F09061717072807390708F42B
:102A400042C08091BC0083FDD8CF85EC8093BC0050
:102A50000E9467066B017C018091D302813009F4EA
:102A600047C08091D0028D1710F4C091D002ADEA1A
:102A7000B2E0E9EDF2E080E08C1751F19D91919385
:102A80008F5FFACF8091D5029091D602A091D702A4
:102A9000B091D802892B8A2B8B2B09F48ACF0E9404
:102AA00067060091D5021091D6022091D70230918D
:102AB000D8026C197D098E099F0906171707280788
:102AC000390708F076CF8091D4020E944A11C0E005
:102AD0001092FA02C093F9028C2FDF91CF911F91CF
:102AE0000F91FF90EF90DF90CF90089585EEAECFDD
:102AF0008091D5029091D602A091D702B091D802D0
:102B0000892B8A2B8B2B09F4A7CF0E946706009193
:102B1000D5021091D6022091D7023091D8026C19BB
:102B20007D098E099F09061717072807390708F03E
:102B300093CFC9CFFC0101900020E9F73197AF0195
:102B4000481B590BBC018FED93E00C94A9048F92A4
:102B50009F92AF92BF920F931F93CF93DF93CDB706
:102B6000DEB7A1970FB6F894DEBF0FBECDBF19A296
:102B7000423008F44AE08E010F5D1F4F842E912CE5
:102B8000B12CA12CA50194010E940D27E62FB901BB
:102B9000CA01EA30F4F4E05DD801EE938D01232BF5
:102BA000242B252B79F790E080E0109719F0CD01C8
:102BB0000E949A15A1960FB6F894DEBF0FBECDBF46
:102BC000DF91CF911F910F91BF90AF909F908F9009
:102BD0000895E95CE1CF682F70E090E080E04AE082
:102BE0000C94A7150C949A152091E5033091E603F7
:102BF000C901079697FD079623E0959587952A9535
:102C0000E1F72091E3033091E403829FA001839FC9
:102C1000500D929F500D112470E060E08091FE03F2
:102C20009091FF030C94522B0E944D2B85ED8093C5
:102C3000BC008091D5029091D602A091D702B091AC
:102C4000D8020796A11DB11D23E0B695A7959795CB
:102C500087952A95D1F72091BC0024FD03C01092DE
:102C6000D30208954091D5025091D6026091D702C7
:102C70007091D802452B462B472B69F30097A1058D
:102C8000B10541F025E32A95F1F700000197A1096C
:102C9000B109E1CF8091D4020C944A114F925F9216
:102CA0006F927F928F929F92AF92BF92CF92DF925C
:102CB000EF92FF920F931F93CF93DF9300D000D03A
:102CC00000D0CDB7DEB781E08093F3038093F403A7
:102CD0008AE090E09093EC038093EB0381E090E036
:102CE0009093EE038093ED03E091A102E150E73071
:102CF00080F4F0E0E258F94E0C94222A8516AF16C3
:102D0000B216B516B816BB16BE1688E791E00E943B
:102D1000F2158091A2028A3020F48CEE91E00E949C
:102D2000F2158091A2020E94EB158BEA91E00E94BD
:102D3000F215E091A002E150EC3038F5F0E0ED55ED
:102D4000F94E0C94222AC1168E19911994199719CB
:102D50009A199D19A019A319A619A919AC198EE7DA
:102D600091E0D5CF84E891E0D2CF8AE891E0CFCF4F
:102D700080E991E0CCCF86E991E0C9CF8CE991E080
:102D8000C6CF82EA91E00E94F215809104018A3058
:102D900008F0E5C28AEE91E00E94F21580910401EC
:102DA0000E94EB158EEB91E00E94F21586EC91E00B
:102DB0009093F9038093F80386E090E09093EC03FE
:102DC0008093EB0380E290E09093EE038093ED0319
:102DD0008091A4028A3030F48CEE91E00E94F215CA
:102DE0008091A4020E94EB1581E290E09093EC03A5
:102DF0008093EB038FE190E09093EE038093ED03DB
:102E000081EF91E00E94F21587E290E09093EC034D
:102E10008093EB0380E290E09093EE038093ED03C8
:102E200080919A028A3020F48CEE91E00E94F21593
:102E300080919A020E94EB158091000120E4829F0C
:102E4000C001112480937C0080917A00806480937B
:102E50007A0080917A0086FDFCCF809178002091E5
:102E60007900322F282F032E000C440B550B2055D0
:102E7000310941095109AEE0B0E00E94022728EB78
:102E800031E040E050E00E94E32649011092F9034E
:102E90001092F8038BE090E09093EC038093EB03A7
:102EA0008AE290E09093EE038093ED0383EF91E04C
:102EB0000E94F21501E010E028E030E042E150E02D
:102EC00069E270E087E290E00E94C60EEE24E3948F
:102ED000F12C04E010E022E030E04BE250E069E346
:102EE00070E08FED93E00E94200D94012F303105AA
:102EF00014F02EE030E0EE24E394F12C04E010E036
:102F00004BE250E069E270E08FED93E00E94200D0B
:102F10008DE090E09093EC038093EB0385E390E0E9
:102F20009093EE038093ED03C0908A02D0908B02C1
:102F3000E0908C02F0908D02A7019601C701B601C6
:102F40000E94C829882309F40DC288EF91E00E94ED
:102F50009A1541E050E065E370E08EE290E00E9457
:102F60005C0F84E092E00E94F2158EE690E0909370
:102F7000EC038093EB0385E390E09093EE03809362
:102F8000ED03F12CE12C0BE010E022E130E045E311
:102F900050E06EE670E08FED93E00E942C0C22E191
:102FA00030E045E350E06EE670E08FED93E00E9484
:102FB000200D6091E9037091EA0377FF02C06F5F13
:102FC0007F4F759567956B5F7F4F8091E703909179
:102FD000E80397FD01969595879547E150E04F9658
:102FE0000E945C0F6091E9037091EA0377FF02C0D1
:102FF0006F5F7F4F759567956B5F7F4F8091E7039C
:103000009091E80397FD01969595879542E050E0F1
:103010004F960E945C0F04E010E021E330E041E3B2
:1030200050E06DE070E087E490E00E94C60E1E82E2
:103030001D822D813E81B901330F880B990B0E94AF
:103040005F2821EE3EE245E652E40E94B5274B019F
:103050005C010E94C0296B017C01C501B4010E9482
:10306000B0274B015C0120E030E048E851E40E94C9
:1030700053299B01AC0160E070E084E192E40E947E
:103080003E270E9427282B0120E030E048E851E449
:10309000C701B6010E94532920E030E04EEB52E414
:1030A0000E943F270E94272869837A838B839C8311
:1030B00020E030E040EB51E4C501B4010E94532907
:1030C0009B01AC0160E070E084E192E40E943E2745
:1030D0000E9427284B0120E030E040EB51E4C7017B
:1030E000B6010E94532920E030E04EEB52E40E94EA
:1030F0003F270E942728EE24E394F12C82012981A6
:103100003A81A4018FED93E00E948B0C8D819E810A
:103110004E969E838D838836914009F08ACF6091C8
:10312000990236E0639FB0011124072E000C880B32
:10313000990B0E945F2821EE3EE245E652E40E9490
:10314000B5276B017C010E94C0292B013C01C701FE
:10315000B6010E94B02720E030E040EB51E40E942D
:1031600053299B01AC0160E070E084E192E40E948D
:103170003E270E9427284B0120E030E040EB51E43D
:10318000C301B2010E94532920E030E04EEB52E42B
:103190000E943F270E942728EE24E394F12C84010B
:1031A0009B0145E250E06FE570E08FED93E00E94F7
:1031B0008B0C60919A0286E0689FB0011124072E63
:1031C000000C880B990B0E945F2821EE3EE245E639
:1031D00052E40E94B5276B017C010E94C0292B019B
:1031E0003C01C701B6010E94B02720E030E048E969
:1031F00051E40E9453299B01AC0160E070E084E13E
:1032000092E40E943E270E9427284B0120E030E0F4
:1032100048E951E4C301B2010E94532920E030E0A3
:103220004EEB52E40E943F270E942728EE24E394AD
:10323000F12C84019B0145E250E06FE570E08FEDD9
:1032400093E00E948B0C80919A026CE00E94162AF7
:103250006091A4029EE1699FB001112426E0829F43
:10326000600D711D1124072E000C880B990B0E9414
:103270005F2821EE3EE245E652E40E94B5276B014D
:103280007C010E94C0292B013C01C701B6010E94AC
:10329000B02720E030E040E351E40E9453299B0135
:1032A000AC0160E070E084E192E40E943E270E945D
:1032B00027284B0120E030E040E351E4C301B20194
:1032C0000E94532920E030E04EEB52E40E943F2759
:1032D0000E942728EE24E394F12C84019B0145E20F
:1032E00050E06FE570E08FED93E00E948B0C269626
:1032F0000FB6F894DEBF0FBECDBFDF91CF911F9107
:103300000F91FF90EF90DF90CF90BF90AF909F9084
:103310008F907F906F905F904F90089588EA91E032
:1033200032CD8EEA91E02FCD84EB91E02CCD8AEB6B
:1033300091E029CD80EC91E026CD86EC91E023CD83
:103340008CEC91E020CD82ED91E01DCD88ED91E0F7
:103350001ACD8EED91E017CD84EE91E014CD8EEE76
:1033600091E01ACD46015701E894B7F82FEF3FEFEF
:103370004FE75FE7C501B4010E94C82981110DC064
:103380002FEF3FEF4FE75FE7C501B4010E94AB2786
:1033900018161CF48CEF91E0DACD2FEF3FEF4FE7DA
:1033A0005FE4C701B6010E944E2918161CF480E0A4
:1033B00092E0CDCD2FEF3FEF4FE75FECC701B601B5
:1033C0000E94AB2787FDF3CF20E030E0A901C701C1
:1033D000B6010E94AB2787FF09C06DE28FED93E035
:1033E0000E945A0BF7FAF094F7F8F0942AE037EDC0
:1033F00043EA5BE3C701B6010E943F274B015C0132
:103400000E942E286B017C010E945D289B01AC016B
:10341000C501B4010E943E274B015C014AE0C7018F
:10342000B6010E94A7156EE28FED93E00E945A0B41
:1034300020E030E040E251E4C501B4010E9453298C
:103440004B015C010E942E286B01F12CE12C4AE01B
:10345000C701B6010E94A715C701B6010E945D28E9
:103460009B01AC01C501B4010E943E2720E030E081
:1034700040E251E40E9453290E942E2890E080E00F
:103480004AE00E94A71565CD1F920F920FB60F92CA
:1034900011242F933F934F935F936F937F938F9359
:1034A0009F93AF93BF93EF93FF9386E393E00E94C4
:1034B0002705FF91EF91BF91AF919F918F917F91E0
:1034C0006F915F914F913F912F910F900FBE0F9091
:1034D0001F9018951F920F920FB60F9211242F93E1
:1034E0008F939F93EF93FF93E0914603F0914703EF
:1034F0008081E0914C03F0914D0382FD1BC09081CF
:1035000080914F038F5F8F7320915003821741F09A
:10351000E0914F03F0E0EA5CFC4F958F80934F03FE
:10352000FF91EF919F918F912F910F900FBE0F9070
:103530001F9018958081F4CF1F920F920FB60F92B3
:1035400011242F933F938F939F93AF93BF938091B9
:103550008E0290918F02A0919002B09191023091D1
:10356000800223E0230F2D3758F50196A11DB11DD0
:103570002093800280938E0290938F02A0939002FA
:10358000B09391028091810290918202A091830276
:10359000B09184020196A11DB11D80938102909388
:1035A0008202A0938302B0938402BF91AF919F9156
:1035B0008F913F912F910F900FBE0F901F901895F4
:1035C00026E8230F0296A11DB11DD2CF1F920F92A4
:1035D0000FB60F9211242F933F934F935F936F93E6
:1035E0007F938F939F93AF93BF93EF93FF938091BC
:1035F000B900887F803609F44AC0F0F5883209F4B2
:10360000A7C018F5803109F49BC0B8F4882309F4E9
:10361000F9C0883009F494C0FF91EF91BF91AF9148
:103620009F918F917F916F915F914F913F912F91DA
:103630000F900FBE0F901F901895883109F488C025
:10364000803251F78093D10214C0803409F49DC0B8
:1036500040F48033B9F38833F9F68093D10285ECD6
:10366000B0C0803509F485C0883509F496C0883427
:1036700099F60E941616D0CF883909F48CC038F517
:10368000883729F050F4883611F0803729F683E026
:103690008093D30210927F0257C0883809F47BC010
:1036A000803919F0803809F0B7CF80917F028032DD
:1036B00008F071C0E0917F0281E08E0F80937F025D
:1036C0008091BB00F0E0E15AFD4F80833DC0803B1C
:1036D00039F0E0F4803A09F479C0883A09F09CCFD7
:1036E00084E08093D30210925E0210925D02E0911A
:1036F0008802F0918902099580915D0281110FC0C5
:1037000081E080935D0210923D0209C0803C09F483
:10371000A6CF883C09F4A3CF883B09F07DCFE09188
:103720005E0281E08E0F80935E02F0E0E35CFD4F6D
:1037300080818093BB0090915E0280915D0229C0E0
:103740008091CE028093BB0085EC8093BC0064CF57
:103750009091D0028091CF02981758F5E091D00255
:1037600081E08E0F8093D002F0E0E355FD4F808121
:10377000E9CFE091D00281E08E0F8093D00280915A
:10378000BB00F0E0E355FD4F80839091D002809123
:10379000CF029817C8F285E8D8CFE091D00281E037
:1037A0008E0F8093D0028091BB00F0E0E355FD4F77
:1037B00080838091D20281115CCF81E08093CD0221
:1037C00084EA8093BC001092D30226CF85EC8093CC
:1037D000BC001092D30280917F02803230F4E091DD
:1037E0007F02F0E0E15AFD4F108260917F0270E0AD
:1037F000E0918602F09187028FE592E009951092A0
:103800007F020ACF1092D10234CF1F920F920FB6CF
:103810000F9211242F933F934F935F936F937F9356
:103820008F939F93AF93BF93CF93EF93FF9399B1F0
:10383000C09103038091330330913003292F2095E9
:1038400023238923822B20916D00C927C223C823FB
:1038500090930303CC23C1F1C0FF05C0E0910403A2
:10386000F09105030995C1FF05C0E0910603F091B1
:1038700007030995C2FF05C0E0910803F091090311
:103880000995C3FF05C0E0910A03F0910B03099568
:10389000C4FF05C0E0910C03F0910D030995C5FF2D
:1038A00005C0E0910E03F0910F030995C6FF05C016
:1038B000E0911003F09111030995C7FF05C0E09155
:1038C0001203F09113030995FF91EF91CF91BF91EE
:1038D000AF919F918F917F916F915F914F913F91A8
:1038E0002F910F900FBE0F901F9018951F920F925F
:1038F0000FB60F9211242F933F934F935F936F93C3
:103900007F938F939F93AF93BF93CF93EF93FF9347
:1039100096B1C09114038091340330913103292F63
:10392000209523238923822B20916C00C927C22351
:10393000C82390931403CC2351F1C0FF05C0E0913C
:103940001503F09116030995C1FF05C0E091170317
:10395000F09118030995C2FF05C0E0911903F09199
:103960001A030995C3FF05C0E0911B03F0911C03E6
:103970000995C4FF05C0E0911D03F0911E03099550
:10398000C5FF05C0E0911F03F09120030995FF9149
:10399000EF91CF91BF91AF919F918F917F916F9157
:1039A0005F914F913F912F910F900FBE0F901F90FD
:1039B00018951F920F920FB60F9211242F933F93D9
:1039C0004F935F936F937F938F939F93AF93BF9327
:1039D000CF93EF93FF9393B1C0912303809135036D
:1039E00030913203292F209523238923822B209184
:1039F0006B00C927C223C82390932303CC2351F122
:103A0000C0FF05C0E0912403F09125030995C1FF93
:103A100005C0E0912603F09127030995C2FF05C078
:103A2000E0912803F09129030995C3FF05C0E091B7
:103A30002A03F0912B030995C4FF05C0E0912C03E4
:103A4000F0912D030995C5FF05C0E0912E03F0917B
:103A50002F030995FF91EF91CF91BF91AF919F9166
:103A60008F917F916F915F914F913F912F910F9027
:103A70000FBE0F901F9018951F920F920FB60F92C6
:103A800011242F933F934F935F936F937F938F9363
:103A90009F93AF93BF93EF93FF93E0910103F09156
:103AA00002030995FF91EF91BF91AF919F918F9183
:103AB0007F916F915F914F913F912F910F900FBE2A
:103AC0000F901F9018951F920F920FB60F9211240E
:103AD0002F933F934F935F936F937F938F939F9316
:103AE000AF93BF93EF93FF93E091FF02F091000338
:103AF0000995FF91EF91BF91AF919F918F917F9128
:103B00006F915F914F913F912F910F900FBE0F904A
:103B10001F901895E6E3F3E01382128248EE53E01B
:103B200060E070E044835583668377838CE291E0A4
:103B30009183808385EC90E09587848784EC90E086
:103B40009787868780EC90E0918B808B81EC90E06A
:103B5000938B828B82EC90E0958B848B86EC90E04B
:103B6000978B868B118E128E138E148EA3EDB3E07D
:103B700013961C921E92129714964D935D936D931B
:103B80007C9317978EE391E011969C938E93EFEDC3
:103B9000F3E01382128220E830E03583248380E44E
:103BA00090E0978386833187208793878287168A60
:103BB000158614861786168681E0858B848B2FEFF9
:103BC0003FEF338B228B318B208B878B108E128EA5
:103BD000118E80E591E091838083148E138EB68FD1
:103BE000A58F10A2178E8FEF84A385A386A387A32A
:103BF00089E080A780E585AB16AA80E89AE1A6E077
:103C0000B0E087AB90AFA1AFB2AF80EA96E8A1E099
:103C1000B0E083AF94AFA5AFB6AF0895789484B504
:103C2000826084BD84B5816084BD85B5826085BDB8
:103C300085B5816085BD80916E00816080936E0046
:103C40001092810080918100826080938100809138
:103C500081008160809381008091800081608093E9
:103C600080008091B10084608093B1008091B000A9
:103C700081608093B00080917A00846080937A00A4
:103C800080917A00826080937A0080917A008160CE
:103C900080937A0080917A00806880937A001092F5
:103CA000C10061E085E00E9436065D9A62E082E034
:103CB0000E94360662E086E00E94360662E087E0F7
:103CC0000E94360662E088E00E94360661E083E0EA
:103CD0000E9436065B9861E084E00E9436065C989C
:103CE00066E974E086E00E94E3036DE974E087E032
:103CF0000E94E30360EA74E088E00E94E30383E04B
:103D0000809300018091FE039091FF03892B09F4B9
:103D100088C00E94F41582E0809301048091FC0326
:103D20009091FD03892B09F06DC261E0809105043B
:103D30000E94360661E0809106040E94360680915A
:103D40000504082E000C990BFC01EA5BF84FE49186
:103D5000F0E0EE0FFF1FE75EF84F259134913093AE
:103D60000D0420930C04FC01E65AF84FE491E09313
:103D7000120480910604082E000C990BFC01EA5BEA
:103D8000F84FE491F0E0EE0FFF1FE75EF84FA591CA
:103D9000B491B0930F04A0930E04FC01E65AF84FBF
:103DA000E491E09313048C91E82BEC938091FA0357
:103DB0009091FB03892B09F4CCC2CFB7F894809182
:103DC0008502811127C0E0E5F7E08491E4E6F7E0A1
:103DD0009491E82FF0E0EE0FFF1FED50F94FA59101
:103DE000B491EC91E92321F461E08AE00E94080695
:103DF00061E08AE00E9436068CB580618CBD8CB58E
:103E000080648CBD61E08DE00E94360661E08BE04D
:103E10000E943606809185028F5F80938502CFBF16
:103E20000AC22091E5033091E603C901079697FD88
:103E30000796B3E095958795BA95E1F72091E3034E
:103E40003091E403AC01429FC001439F900D529F0B
:103E5000900D11240E94282A9093FF038093FE0363
:103E6000892B09F056CF81E08093F3038093F4030C
:103E700081E090E09093F2038093F1039093F0033C
:103E80008093EF030E940C1460E08FED93E00E949A
:103E90002414DAE090E0492E90E0592EC1E024E1AC
:103EA000822E912C30E1C32ED12C84E6B82E12E361
:103EB000A12E07E0602E8FB7F89440918E025091AA
:103EC0008F0260919002709191028FBF8091A90240
:103ED0009091AA02A091AB02B091AC02481B590B81
:103EE0006A0B7B0B8091050190E0B0E0A0E04817E1
:103EF00059076A077B0708F4F0C62FB7F89480913A
:103F00008E0290918F02A0919002B09191022FBFEA
:103F10008093A9029093AA02A093AB02B093AC0243
:103F20008091A7029091A80201969093A802809395
:103F3000A7028091A60251E085278093A6022FB7A1
:103F4000F89480918E0290918F02A0919002B0918E
:103F500091022FBF803C944DA140B10509F45D98BA
:103F600088E60E945E0490E080E00E94D61183ED16
:103F700093E00E94DB1187E090E00E94CC140E9445
:103F80007B04982F929597708F709D9F800D1124C0
:103F9000809399020E947B04982F92959F708F7056
:103FA0009D9F800D112480939A020E947B04982F7C
:103FB000929593708F70182F9D9F100D1124109360
:103FC000A4020E947B04982F92959F708F709D9FF2
:103FD000800D11248093A1020E947B04982F92955A
:103FE0009F708F709D9F800D11248093A2020E946C
:103FF0007B04982F92959F708F709D9F800D112448
:104000008093A0020E947B04982F92959F708F70DE
:104010009D9F800D11248093040183ED93E00E9405
:10402000DB118091A5028F5F8093A5028A3008F48E
:1040300050C088E60E945E048EE090E00E94D61197
:1040400083ED93E00E94DB1181E090E00E94CC14AC
:104050000E947B0485FD3BC088E60E945E0481E1EE
:1040600090E00E94D61183ED93E00E94DB1182E084
:1040700090E00E94CC149091F9028091FA02981776
:1040800011F10E947B04082F0E947B04302E212C0A
:10409000B101682BB6E075956795BA95E1F7072EE3
:1040A000000C880B990B0E945F2820E030E040E86C
:1040B0005EE30E94532960938A0270938B0280937F
:1040C0008C0290938D0283ED93E00E94DB1110929D
:1040D000A50217501F3008F4CBC10E940C1460E0F9
:1040E0008FED93E00E9424140E94F4158091A302A6
:1040F000811102C00E944E167090A302F1E07F125F
:104100000CC286E090E09093EC038093EB039093D5
:10411000EE038093ED0387E092E00E94F215EE2417
:10412000E394F12C0EE010E02AE730E04EE050E09E
:1041300066E070E08FED93E00E948B0C8091A2020C
:10414000662D0E94162A8091A102981B985F9830D4
:1041500018F0892F0E94162A2091A00230E0A901B0
:104160004150510980910401837009F09AC1465E63
:104170005E4FDA011C91265E3E4FF901E080062D6C
:10418000091B26E030E03093EC032093EB03D09240
:10419000EE03C092ED03073009F08AC1FF24F394C7
:1041A00001E010E0EF1408F495C18091A202F8122A
:1041B000EDC51092F0031092EF031093F2030093F9
:1041C000F103F9E0FF1508F0E5C51092F003109235
:1041D000EF031093F2030093F1038F2D0E94EB1570
:1041E0008091A202F81208C01093F0030093EF032D
:1041F0001092F2031092F1038EEB91E00E94F215FF
:10420000F394D0CF8CE3809300041092FA021092C2
:10421000F9021092FC021092FB020E942C1187EA14
:1042200094E0909389028093880288EA94E09093C6
:104230008702809386028091070487FD1EC061E09B
:104240000E94360661E0809107040E94080661E042
:1042500070E080E090E00E948C0660E080910704AE
:104260000E9408066AE070E080E090E00E948C0600
:1042700061E0809107040E9408068091FC03909100
:10428000FD03892B09F4A8C06091160470911704EE
:1042900080911804909119040E94191164E085E13D
:1042A00097E00E94C2126091E50361508FED93E0A8
:1042B0000E94651364E081E197E00E94C212809140
:1042C000010460E1813009F064E18FED93E00E9428
:1042D000651364E08DE097E00E94C2128091E303D1
:1042E0009091E4038038910509F0A1C08091E50325
:1042F0009091E6038032910509F085C064E089E081
:1043000097E00E94C21269ED8FED93E00E94651361
:104310008091010462E2813009F061EF8FED93E05A
:104320000E94651366E08DEF96E00E94C2128091B4
:10433000FC039091FD03892B09F490C060911A044D
:1043400070911B0480911C0490911D040E9419110E
:104350008ACD61E0809103040E94360661E080917D
:1043600004040E94360680910304082E000C990B69
:10437000FC01EA5BF84FE491F0E0EE0FFF1FE75E0F
:10438000F84F259134913093090420930804FC01DF
:10439000E65AF84FE491E093100480910404082E4B
:1043A000000C990BFC01EA5BF84FE491F0E0EE0F92
:1043B000FF1FE75EF84FA591B491B0930B04A09353
:1043C0000A04FC01E65AF84FE491E09311048C9141
:1043D000E095E823EC932FCF8091FA039091FB03B3
:1043E000892B31F080911404909115040E941C09CE
:1043F000E0910E04F0910F04908180911304809558
:10440000892380834BCF8034910509F07CCF63E012
:1044100086E097E00E94C212809101046FE981302A
:1044200009F06FEC8FED93E00E9465136CCF80363E
:10443000910509F068CF8091E5039091E6034097DC
:1044400009F061CF63E083E097E00E94C21280919F
:10445000010460E1813031F36FEAE4CFE0910E04B2
:10446000F0910F04808190911304892B8083FBCC01
:1044700081E80E94C21380EA0E94C21364E170E0E6
:1044800080E090E00E948C0689ED0E94C21382E2D7
:104490000E94C21368E270E080E090E00E948C0607
:1044A0001ECE445F5E4FDA011C91245F3E4F65CE05
:1044B0009750190F812FFF24F394F80E0E94EB15EB
:1044C0008EEB91E00E94F2158F2D9F2D911B091705
:1044D00090F764CE8CEE91E00E94F215872D0E9439
:1044E000EB158EEB91E00E94F21573942BE07212A3
:1044F000F1CF80910301882341F08091020188234C
:1045000021F08091A302823081F41092A302C09323
:104510000301C093020110929F028091A302823096
:1045200021F41092A30210929E028091A302835064
:10453000873008F017C20E944E168091A302833084
:1045400009F040C0B09205018091A602882379F05D
:10455000EE24E394F12C09E010E025E130E050E096
:1045600040E068E070E08FED93E00E942C0C8091B9
:104570000301811127C08091A602811123C080917F
:10458000A10290E00196883091050CF076C39093DB
:104590009D0280939C0210919C021093A10288E6D8
:1045A0000E945E0483E090E00E94D611812F0E9459
:1045B0006314682F83ED93E00E94A71183ED93E0CD
:1045C0000E94DB118091A302843009F04DC08091DC
:1045D000A602882379F0EE24E394F12C09E010E0A0
:1045E0002FE030E050E040E066E270E08FED93E0D5
:1045F0000E942C0C80910301811136C08091A6028B
:10460000811132C08091A20290E0019690939D02A8
:1046100080939C0220919B022F5F20939B02253068
:1046200021F4A092050110929B02809734F081E062
:1046300090E090939D0280939C0210919C021093B5
:10464000A20288E60E945E0484E090E00E94D611F7
:10465000812F0E946314682F83ED93E00E94A711BD
:1046600083ED93E00E94DB118091A302853009F075
:1046700040C0B09205018091A602882379F0EE2413
:10468000E394F12C09E010E025E130E050E040E057
:104690006EE370E08FED93E00E942C0C809103019B
:1046A000811127C08091A602811123C08091A002B0
:1046B00090E001968D3091050CF0E2C290939D023E
:1046C00080939C0210919C021093A00288E60E94A5
:1046D0005E0485E090E00E94D611812F0E94631451
:1046E000682F83ED93E00E94A71183ED93E00E9471
:1046F000DB118091A302863009F04DC08091A602A3
:10470000882379F0EE24E394F12C09E010E02BE10A
:1047100030E050E040E06CE570E08FED93E00E9407
:104720002C0C80910301811136C08091A602811169
:1047300032C08091040190E0019690939D02809395
:104740009C0220919B022F5F20939B02253021F435
:10475000A092050110929B0244978035910520F0AC
:1047600090929D0280929C0210919C0210930401F1
:1047700088E60E945E0486E090E00E94D611812FB8
:104780000E946314682F83ED93E00E94A71183EDCC
:1047900093E00E94DB118091A302873009F04BC0A7
:1047A0008091A602882379F0EE24E394F12C03E1B2
:1047B00010E02CE130E04FE050E065E070E08FED7C
:1047C00093E00E942C0C80910301811134C08091F0
:1047D000A602811130C08091A40290E001969093CE
:1047E0009D0280939C0220919B022F5F20939B024D
:1047F000253021F4A092050110929B02489724F0E5
:1048000010929D0210929C0210919C021093A4029F
:1048100088E60E945E0482E090E00E94D611812F1B
:104820000E946314682F83ED93E00E94A71183ED2B
:1048300093E00E94DB118091A302883009F04BC005
:104840008091A602882379F0EE24E394F12C03E111
:1048500010E02CE130E04FE050E066E270E08FEDD8
:1048600093E00E942C0C80910301811134C080914F
:10487000A602811130C080919A0290E00196909337
:104880009D0280939C0220919B022F5F20939B02AC
:10489000253021F4A092050110929B02CC9724F0C0
:1048A00010929D0210929C0210919C0210939A0209
:1048B00088E60E945E0481E090E00E94D611812F7C
:1048C0000E946314682F83ED93E00E94A71183ED8B
:1048D00093E00E94DB118091A3028930E9F5B09248
:1048E00005018091A602882379F0EE24E394F12C4F
:1048F0000EE010E026E030E043E150E061E270E0DD
:104900008FED93E00E942C0C80910301811119C05E
:104910008091A602811115C01092990288E60E942A
:104920005E0490E080E00E94D61180E00E94631453
:10493000682F83ED93E00E94A71183ED93E00E941E
:10494000DB1180910201811107C04AE04093A3026C
:10495000C0930201C0930301189B04C0C0930301DC
:1049600010929F028091A3028B3061F41092A302F7
:1049700010929E021092A8021092A70210929F021B
:10498000B0920501809198028F5F80939802809188
:104990000201811123C080919702811104C01092FD
:1049A0009802C09397028091A30281110AC090914E
:1049B0009702992331F090919802943010F0C093AF
:1049C00096028350873050F480919702882331F00B
:1049D00080919802843010F0C093950286E00E9486
:1049E000DF05892B71F18091020181112AC080912C
:1049F000A3028F5F8093A302C0930201809196026D
:104A0000882359F053E05093A30210929602C0936A
:104A10009E021092A8021092A7028091950288230C
:104A200071F00E946A141092A302B09205011092D4
:104A30009E021092A8021092A70210929502109264
:104A4000970280910101811104C00E94B414C093A7
:104A5000010180910201811114C080910301811133
:104A600010C08091A30281110CC0109297020E9485
:104A7000B4141092A30210929F02C0930201C0933B
:104A80000301809194028F5F8093940280910301CF
:104A900081111EC080919302811104C01092940272
:104AA000C09393025D9A80919302882361F0809174
:104AB0009402823040F080919F0291E08927809398
:104AC0009F02109293028091A302811110929F0283
:104AD00080919F028823A9F08091A302811115C0C3
:104AE00088E00E94DF05892B99F05B9A8091920201
:104AF0008F5F809392021092A8021092A702C09337
:104B000003018091A302882319F05B9810929F0201
:104B100080919202823080F08091030181110CC05B
:104B200088E00E94DF05892B39F05B981092920291
:104B300010929F02C093030180919E02882379F016
:104B40008091A7029091A8028238910544F01092BA
:104B50009E021092A8021092A7021092A3028091C6
:104B60009E02811107C08091A7029091A802C2976E
:104B70000CF05D988091FC039091FD03892B09F462
:104B800082C060911604709117048091180490916E
:104B900019040E94191165E083E297E00E94C21295
:104BA0006091E30361508FED93E00E9465132091C3
:104BB000E5033091E603C901079697FD079623E0C8
:104BC000959587952A95E1F72091E3033091E403C9
:104BD000829F7001839FF00C929FF00C1124009132
:104BE000FE031091FF038091FC039091FD03E00E02
:104BF000F11E892B09F47DC0809100040E945E049F
:104C00008091FC039091FD03DC01ED91FC910190FA
:104C1000F081E02D60E40995772473948091FC0382
:104C20009091FD030E151F0509F444C0BFE1B715AF
:104C3000A0F40E94DB11809100040E945E04809128
:104C4000FC039091FD03DC01ED91FC910190F0815A
:104C5000E02D60E40995772473948091FC03909192
:104C6000FD03F80161918F01DC01ED91FC91019050
:104C7000F081E02D09957394D1CF81E090E087CC4D
:104C800081E090E01BCD8091FA039091FB03892B8A
:104C900031F080911404909115040E941C09E09158
:104CA0000E04F0910F049081809113048095892364
:104CB000808371CF0E94DB118091FC039091FD03F2
:104CC000892B09F459C060911A0470911B048091DA
:104CD0001C0490911D040E9419114114510409F4FF
:104CE000EAC80E941305882309F4E1C80E94000065
:104CF000DCC8E0910C04F0910D04808190911204C5
:104D0000892B8083E016F106B9F2F80181918F01B9
:104D10002091FA033091FB03232B19F00E9415090F
:104D2000F1CF28E030E090E8E0910804F091090428
:104D300040911004592F5823D9F05081452B4083BE
:104D4000E0910A04F0910B04408150911104452B2D
:104D50004083E0910A04F0910B04508140911104CA
:104D6000409545234083969521503109E9F6CACFF5
:104D7000508140954523E3CFE0910E04F0910F045C
:104D8000808190911304892B8083A7CFF9E0FF15D0
:104D900008F423CA8CEE91E00E94F2158091A202E1
:104DA000F81609F412CA19CA80E591E09093E0035D
:104DB0008093DF038091FE039091FF03009711F031
:104DC0000C94C42A0895052E97FB1EF400940E94AB
:104DD000FA2657FD07D00E940D2707FC03D04EF49A
:104DE0000C94FA2650954095309521953F4F4F4FA2
:104DF0005F4F089590958095709561957F4F8F4F87
:104E00009F4F08950E942F27A59F900DB49F900D4E
:104E1000A49F800D911D11240895A1E21A2EAA1BB2
:104E2000BB1BFD010DC0AA1FBB1FEE1FFF1FA2175A
:104E3000B307E407F50720F0A21BB30BE40BF50B57
:104E4000661F771F881F991F1A9469F760957095E0
:104E5000809590959B01AC01BD01CF010895A29F63
:104E6000B001B39FC001A39F700D811D1124911D3E
:104E7000B29F700D811D1124911D08955058BB27BC
:104E8000AA270E9456270C9400290E94C72838F0B0
:104E90000E94CE2820F039F49F3F19F426F40C9498
:104EA000C4280EF4E095E7FB0C94BE28E92F0E947D
:104EB000252958F3BA17620773078407950720F06E
:104EC00079F4A6F50C9447290EF4E0950B2EBA2F31
:104ED000A02D0B01B90190010C01CA01A001112400
:104EE000FF27591B99F0593F50F4503E68F11A16AC
:104EF000F040A22F232F342F4427585FF3CF46953D
:104F000037952795A795F0405395C9F77EF41F165E
:104F1000BA0B620B730B840BBAF09150A1F0FF0F28
:104F2000BB1F661F771F881FC2F70EC0BA0F621F14
:104F3000731F841F48F4879577956795B795F79504
:104F40009E3F08F0B0CF9395880F08F09927EE0F99
:104F50009795879508950E949A2808F481E008950E
:104F60000E94D728E3950C9411290E94C9270C941C
:104F700000290E94CE2858F00E94C72840F029F44A
:104F80005F3F29F00C94BE2851110C9448290C94D1
:104F9000C4280E94252968F39923B1F3552391F37E
:104FA000951B550BBB27AA2762177307840738F098
:104FB0009F5F5F4F220F331F441FAA1FA9F335D0F5
:104FC0000E2E3AF0E0E832D091505040E695001CA9
:104FD000CAF72BD0FE2F29D0660F771F881FBB1F63
:104FE000261737074807AB07B0E809F0BB0B802D41
:104FF000BF01FF2793585F4F3AF09E3F510578F06D
:105000000C94BE280C9448295F3FE4F3983ED4F3F7
:10501000869577956795B795F7959F5FC9F7880F40
:10502000911D9695879597F90895E1E0660F771F92
:10503000881FBB1F621773078407BA0720F0621B23
:10504000730B840BBA0BEE1F88F7E09508950E944E
:105050002E286894B1110C94482908950E942D2996
:1050600088F09F5798F0B92F9927B751B0F0E1F029
:10507000660F771F881F991F1AF0BA95C9F714C0D9
:10508000B13091F00E944729B1E008950C9447296E
:10509000672F782F8827B85F39F0B93FCCF3869512
:1050A00077956795B395D9F73EF49095809570956F
:1050B00061957F4F8F4F9F4F0895E89409C097FBEC
:1050C0003EF490958095709561957F4F8F4F9F4FDF
:1050D0009923A9F0F92F96E9BB279395F695879523
:1050E00077956795B795F111F8CFFAF4BB0F11F4E6
:1050F00060FF1BC06F5F7F4F8F4F9F4F16C088238D
:1051000011F096E911C0772321F09EE8872F762FC2
:1051100005C0662371F096E8862F70E060E02AF003
:105120009A95660F771F881FDAF7880F96958795EF
:1051300097F90895990F0008550FAA0BE0E8FEEFC4
:1051400016161706E807F907C0F012161306E4074B
:10515000F50798F0621B730B840B950B39F40A2644
:1051600061F0232B242B252B21F408950A2609F422
:10517000A140A6958FEF811D811D089597F99F6726
:1051800080E870E060E008959FEF80EC08950024CF
:105190000A941616170618060906089500240A949C
:1051A000121613061406050608950C94C4280E94CE
:1051B0002D29D8F3E894E0E0BB279F57F0F02AEDC3
:1051C0003FE049EC06C0EE0FBB0F661F771F881F3C
:1051D00028F0B23A62077307840728F0B25A620BCC
:1051E000730B840BE3959A9572F7803830F49A9597
:1051F000BB0F661F771F881FD2F790480C94CF29EA
:10520000092E0394000C11F4882352F0BB0F40F4D4
:10521000BF2B11F460FF04C06F5F7F4F8F4F9F4F14
:105220000895EF93E0FF07C0A2EA2AED3FE049ECC2
:105230005FEB0E9456270E9400290F90039401FC07
:105240009058E8E6F0E00C94DB2957FD9058440FA5
:10525000551F59F05F3F71F04795880F97FB991FD5
:1052600061F09F3F79F08795089512161306140692
:10527000551FF2CF4695F1DF08C01616170618061F
:10528000991FF1CF86957105610508940895E894FA
:10529000BB2766277727CB0197F908950E949A28A4
:1052A00008F48FEF08950E9466290C9400290E944B
:1052B000C72838F00E94CE2820F0952311F00C94D6
:1052C000BE280C94C42811240C9448290E94252936
:1052D00070F3959FC1F3950F50E0551F629FF00149
:1052E000729FBB27F00DB11D639FAA27F00DB11D62
:1052F000AA1F649F6627B00DA11D661F829F2227EB
:10530000B00DA11D621F739FB00DA11D621F839F71
:10531000A00D611D221F749F3327A00D611D231F47
:10532000849F600D211D822F762F6A2F11249F5795
:1053300050409AF0F1F088234AF0EE0FFF1FBB1F98
:10534000661F771F881F91505040A9F79E3F510557
:1053500080F00C94BE280C9448295F3FE4F3983EFB
:10536000D4F3869577956795B795F795E7959F5F01
:10537000C1F7FE2B880F911D9695879597F9089593
:105380009F930E94D7280F9007FCEE5F0C94112981
:105390000E949A28880B990B08959F3F31F09150F5
:1053A00020F4879577956795B795880F911D969509
:1053B000879597F908959F938F937F936F93FF93AA
:1053C000EF939B01AC010E945329EF91FF910E9442
:1053D000EF292F913F914F915F910C945329DF93C7
:1053E000CF931F930F93FF92EF92DF927B018C017B
:1053F000689406C0DA2EEF010E946629FE01E89447
:10540000A5912591359145915591A6F3EF010E9403
:105410005627FE019701A801DA9469F7DF90EF9013
:10542000FF900F911F91CF91DF910895991B79E023
:1054300004C0991F961708F0961B881F7A95C9F724
:1054400080950895EE0FFF1F0590F491E02D0994CB
:105450000F931F93CF93DF938230910510F482E076
:1054600090E0E0912004F091210430E020E0B0E0F1
:10547000A0E0309799F42115310509F44AC0281BA2
:10548000390B24303105D8F58A819B81611571056E
:1054900089F1FB0193838283FE0111C04081518118
:1054A0000281138148175907E0F04817590799F40A
:1054B000109761F012960C93129713961C933296E4
:1054C000CF01DF91CF911F910F9108950093200498
:1054D00010932104F4CF2115310551F042175307E1
:1054E00038F0A901DB019A01BD01DF01F801C1CF4C
:1054F000EF01F9CF9093210480932004CDCFFE01DA
:10550000E20FF31F8193919322503109398328834D
:10551000D7CF20911E0430911F04232B41F42091FA
:1055200008013091090130931F0420931E0420913B
:105530000601309107012115310541F42DB73EB721
:1055400040910A0150910B01241B350BE0911E0480
:10555000F0911F04E217F307A0F42E1B3F0B28174E
:10556000390778F0AC014E5F5F4F2417350748F0DC
:105570004E0F5F1F50931F0440931E04819391931D
:105580009FCFF0E0E0E09CCFCF93DF930097E9F06E
:10559000FC01329713821282A0912004B091210461
:1055A000ED0130E020E01097A1F420813181820FDD
:1055B000931F20911E0430911F042817390709F00A
:1055C00061C0F0931F04E0931E04DF91CF91089512
:1055D000EA01CE17DF07E8F54A815B819E0141159C
:1055E0005105B1F7E901FB83EA8349915991C40F51
:1055F000D51FEC17FD0761F4808191810296840F1D
:10560000951FE90199838883828193819B838A8393
:10561000F0E0E0E012968D919C9113970097B9F518
:105620002D913C911197CD010296820F931F2091ED
:105630001E0430911F042817390739F6309751F5A9
:105640001092210410922004B0931F04A0931E0412
:10565000BCCFD383C28340815181840F951FC8176B
:10566000D90761F44E5F5F4F88819981480F591FB8
:10567000518340838A819B819383828321153105E5
:1056800009F0B0CFF0932104E09320049ECFFD01F8
:10569000DC01C0CF13821282D7CF81E090E0F89472
:1056A0000C94592BDC0101C06D9341505040E0F740
:1056B000089513E0C8EBD3E004C0FE010E94222A43
:0C56C0002196C93BD107C9F7F894FFCF31
:1056CC000101010116640000220480001F1F1C1F31
:1056DC001E1F1E1F1F1E1F1E1F001F1F1D1F1E1FF4
:1056EC001E1F1F1E1F1E1F00000000004905A904DD
:1056FC00D60496050705E504F90400000000A7117F
:10570C007A1160148E048F0468046B110000000081
:10571C005A0BA9046014F11065088E04FF0DD70D07
:10572C00F30DE70D44108E0420092414D5071E0830
:10573C00200D030D8B0C2C0C4D6F6E2C200044692E
:10574C00652C20004D69742C2000446F6E2C2000B9
:10575C004672652C200053616D2C2000536F6E2C0B
:10576C0020004A616E2E20004665622E20004D619D
:10577C00722E20004170722E20004D616920200095
:10578C004A756E2E20004A756C2E20004175672ECE
:10579C0020005365702E20004F6B742E20004E6F2E
:1057AC00762E200044657A2E2000323030003230C4
:1057BC00003A0042617474006E616E00696E66009E
:1057CC006F7666002043004D6F204469204D6920A0
:0C57DC00446F20467220536120536F0080
:00000001FF
